:020000040800F2
:10000000C80B002079020008FB190008ED17000852
:10001000F91900086F040008D5200008000000004E
:10002000000000000000000000000000FF190008B0
:100030002D05000800000000FD190008011A000845
:10004000930200089302000893020008930200083C
:10005000930200089302000893020008930200082C
:10006000930200089302000893020008710400083C
:1000700091040008A90400089302000893020008F4
:100080009302000800000000930200089302000899
:1000900093020008930200089302000893020008EC
:1000A00093020008930200089302000893020008DC
:1000B00093020008930200089302000893020008CC
:1000C00093020008930200089302000893020008BC
:1000D00093020008692000089302000893020008B8
:1000E000930200089302000893020008930200089C
:1000F0009302000893020008930200080000000029
:1001000000000000930200080000000093020008B5
:1001100093020008000000007D1A00089302000806
:10012000930200089302000893020008930200085B
:100130009302000800000000000000009302000885
:100140009302000893020008000000000000000075
:10015000000000000000000000000000000000009F
:1001600000000000000000000000000093020008F2
:1001700093020008000000000000000000000000E2
:1001800000000000930200080000000000000000D2
:10019000000000000000000000000000000000005F
:1001A0000000000000000000930200089302000815
:1001B0009302000893020008930200080000000068
:1001C0000000000093020008000000000000000092
:1001D000930200089302000800F002F800F03CF8D7
:1001E0000AA090E8000C82448344AAF10107DA4592
:1001F00001D100F031F8AFF2090EBAE80F0013F0A8
:10020000010F18BFFB1A43F0010318472023000019
:1002100040230000103A24BF78C878C1FAD85207AA
:1002200024BF30C830C144BF04680C607047000070
:100230000023002400250026103A28BF78C1FBD8EF
:10024000520728BF30C148BF0B6070471FB502F08E
:1002500047F81FBD10B510BD00F0CFF81146FFF7ED
:10026000F5FF01F05FFF00F0EDF803B4FFF7F2FFD8
:1002700003BC00F0F5F80000094880470948004732
:10028000FEE7FEE7FEE7FEE7FEE7FEE7FEE7FEE746
:10029000FEE7FEE704480549054A064B70470000A3
:1002A0006D1A0008D9010008C8050020C80B0020FD
:1002B000C8070020C807002053EA020C00F069803C
:1002C0002DE9F04B4FF00006002B1FBFB3FA83F56A
:1002D00003FA05F424FA05F65E4012BF1643B2FA9B
:1002E00082F502FA05F4C5F120051EBF22FA05FCCD
:1002F00044EA0C04203556EA044C4FEA144418BF73
:10030000641C4FF000084FF00009904271EB030CA1
:1003100039D3002919BFB1FA81F701FA07F6B0FA0B
:1003200080F700FA07F6C7F120071EBF20FA07FC86
:1003300046EA0C062037B6FBF4FCA7EB0507103F96
:1003400007F01F0BCBF120060CFA0BFB2CFA06F67C
:1003500044BFB3460026202FA4BF5E464FF0000BDB
:100360005BEA060C08BF4FF0010B19EB0B09ABFB66
:10037000027C48EB0608C01B06FB02CC0BFB03CC3F
:1003800071EB0C01C1E70B46024641464846BDE809
:10039000F08B13B54FF000004FF00001AFF3008079
:1003A000BDE81C4070474FF0000200B5134694466C
:1003B0009646203922BFA0E80C50A0E80C50B1F1BD
:1003C0002001BFF4F7AF090728BFA0E80C5048BFD1
:1003D0000CC05DF804EB890028BF40F8042B08BF6F
:1003E000704748BF20F8022B11F0804F18BF00F86B
:1003F000012B7047704770477047754600F02CF826
:10040000AE4605006946534620F00700854618B001
:1004100020B5FFF73FFFBDE820404FF000064FF04A
:1004200000074FF000084FF0000B21F00701AC4629
:10043000ACE8C009ACE8C009ACE8C009ACE8C00948
:100440008D46704710B50446AFF300802046BDE8E6
:100450001040FFF70ABF0000004870476805002001
:1004600001491820ABBEFEE7260002007047FEE7F8
:1004700006480168890707D5416841F002014160DB
:10048000816821F001018160704700000000024096
:1004900004480168890603D5416841F020014160A4
:1004A000704700000000024006480168890507D532
:1004B000416841F400714160016B21F00101016369
:1004C00070470000000002400D4902688A4201D2D4
:1004D0000C4901E00B492031D2B21423083AB2FB97
:1004E000F3F2436C02F01F0223F00303194481640A
:1004F00004498031C16401219140016570470000C9
:1005000008040240000802400179074A02EB810218
:100510004265054A4432491E826501F01F020121ED
:100520009140C16570470000FC080240704772B6F8
:10053000FEE7000070B504000CD02B4A216814209F
:10054000914209D2294A0A44B2FBF0F0800060646B
:1005500027480AE0012070BD234A52420A44B2FBF8
:10056000F0F080006064204808382064022084F89D
:1005700025000A6847F6F0708243D4E90203184365
:10058000D4E904352B431843A3691843E36918439E
:10059000236A1843104308602046FFF795FFA068C0
:1005A0000025B0F5804F00D16560A16C207908600E
:1005B000D4E9130141606068401E032808D8204632
:1005C000FFF7A2FF606D0560D4E91601416002E00B
:1005D0006565A565E565E563012084F8250084F877
:1005E0002450002070BD000008040240F8FFFDBF49
:1005F000000002402DE9F04FDFF820920023012691
:100600000324A9F1040B85B00F2709F1040AABF10B
:10061000040EFAE006FA03F52A407CD091F804C0F3
:100620000CF0030CBCF1010F02D0BCF1020F26D17B
:10063000D0F808C0CDF800C04FEA430C04FA0CF81B
:10064000CDF810C0DDF800C02CEA080CCDF800C0D1
:10065000D1F80C80DDF810C008FA0CF8DDF800C005
:1006600048EA0C08C0F80880D0F804C02CEA050C51
:100670000D79C5F300159D4045EA0C0545600D79DF
:10068000ED43AD070ED0C5684FEA430804FA08FCF5
:1006900025EA0C05D1F808C00CFA08FC4CEA050C58
:1006A000C0F80CC00D7905F00305022D16D1DD0848
:1006B00000EB850CCDF808C0DCF820805D074FEA20
:1006C000D56C07FA0CF528EA05080D6905FA0CF552
:1006D000DDF808C045EA0805CCF8205005684FEA67
:1006E000430CCDF808C004FA0CFC25EA0C0591F87F
:1006F00004C00CF00308DDF808C008FA0CF848EA5A
:100700000508C0F800804D6815F4403F7CD0444D8A
:10071000D5F860C000E077E04CF0010CC5F860C08F
:100720002D6E23F0030C05F0010500953D4D654449
:100730000295AD684FEA837C4FEA1C7807FA08FC03
:1007400025EA0C05B0F1904F06D0DFF8DCC060451B
:1007500005D14FF0010C20E04FF0000C1DE0DFF858
:10076000CCC0604502D14FF0020C16E0DFF8C0C0EB
:10077000604502D14FF0030C0FE0DFF8B8C06045D0
:1007800002D14FF0040C08E0DFF8ACC0604502D1A4
:100790004FF0050C01E04FF0060C0CFA08FC4CEA97
:1007A000050C029DC5F808C0D9F80050CC46D1F818
:1007B000048095435FEAC82800D51543CCF8005063
:1007C000DAF80050D446D1F8048095435FEA8828CF
:1007D00000D51543CCF80050DBF80050DC46D1F8CA
:1007E000048095435FEA883800D51543CCF8005063
:1007F000DEF80050F446D1F8048095435FEAC8382B
:1008000000D51543CCF800505B1C0A6832FA03F59A
:100810007FF400AF05B0BDE8F08F00000804014090
:100820000010024000000140000400480008004899
:10083000000C004800100048001400480AB1816113
:10084000704781627047000001488068704700006F
:10085000640000200248816842681144816070474A
:100860006400002010B50024032000F073F80F206E
:1008700000F008F808B1012401E000F025F8204656
:1008800010BD000070B50E4E05460024706898B18A
:100890004FF47A71B1FBF0F00A490968B1FBF0F04E
:1008A00000F05EFD40B9102D06D200222946501EF0
:1008B00000F030F8356000E00124204670BD0000F3
:1008C00064000020700000200A4882B0016E41F0F0
:1008D00001010166016E01F001010091816D41F09D
:1008E00080518165806D00F08050009002B000F072
:1008F000A1B8000000100240002809DB00F01F0230
:10090000012191404009800000F1E020C0F8001171
:1009100070470000F0B40E4B1B680C46C3F3022373
:10092000C3F10705042D00D90425191D072901D29B
:10093000002300E0DB1E012606FA05F1491E2140D6
:1009400099409E40761E16403143F0BC01F0C3BB77
:100950000CED00E0064900F0070208684FF6FF03BF
:10096000184040EA0220034A104308607047000024
:100970000CED00E00000FA052B492C4B0A683221EF
:100980004A432B4940B1B0F5007F086829D020F4D4
:10099000C06040F480602CE00868C0F34120022869
:1009A00004D051F8800F20F4807022E0D1F880004C
:1009B00020F48070C1F88000086820F4C06040F422
:1009C00000700860B2FBF3F0401C00E0401E4A6972
:1009D000520501D50028F9D1486940050AD5032000
:1009E0007047C0F34120022806D051F8800F40F430
:1009F0008070086000207047D1F8800040F480705B
:100A0000C1F88000086820F4C06040F400700860FD
:100A1000B2FBF3F0401C00E0401E4A695205DBD5F2
:100A20000028F9D1D8E700007000002040420F00F4
:100A3000007000400248816841F480418160704745
:100A4000007000402DE9F8430446006800269D4DE3
:100A500000035ED5A86D0027C00008D4A86D40F043
:100A60008050A865A86D012700F080500090DFF845
:100A70005892D9F8001041F48071C9F80010FFF7BE
:100A8000E3FE804606E000BFFFF7DEFEA0EB0800B5
:100A900002282BD8D9F80000C005F5D5D5F890006C
:100AA00010F4407014D0216C814211D0D5F8900020
:100AB000D5F8901020F4407041F48031C5F89010C2
:100AC000D5F8901021F48031C5F89010C5F8900049
:100AD000C00711D0FFF7B8FE804641F2883907E021
:100AE000FFF7B2FEA0EB0801494501D903260BE050
:100AF000D5F890008007F3D5D5F89000216C20F44C
:100B000040700843C5F890001FB1A86D20F08050D8
:100B1000A8652078C00707D0D5F88800616820F064
:100B200003000843C5F888002078800707D5D5F86A
:100B30008800A16820F00C000843C5F888002078E0
:100B4000400707D5D5F88800E16820F03000084359
:100B5000C5F888002078000707D5D5F888002169F6
:100B600020F0C0000843C5F888002078800607D52B
:100B7000D5F88800616920F440600843C5F8880012
:100B80002078400607D5D5F88800A16920F44050A8
:100B90000843C5F888002078000607D5D5F88800F6
:100BA000E16920F440400843C5F888002088C0056A
:100BB00007D5D5F88800216A20F440300843C5F8ED
:100BC00088002088800507D5D5F88800616A20F460
:100BD00040200843C5F88800208840050FD5D5F887
:100BE0008800A16A20F440100843C5F88800A06A74
:100BF000B0F5801F03D1E86840F48010E8602088D9
:100C000000050FD5D5F88800E16A20F440000843BC
:100C1000C5F88800E06AB0F5800F03D1E86840F4B9
:100C20008010E8602088C0040FD5D5F88800216BBB
:100C300020F040700843C5F88800206BB0F1807F39
:100C400003D1E86840F48010E86020884FF000612C
:100C500080040ED5D5F88800626B20F04060104308
:100C6000C5F88800606B884203D1E86840F48010C2
:100C7000E860208840040ED5D5F88800A26B20F0EB
:100C800040601043C5F88800A06B884203D1E86833
:100C900040F48010E860208800040FD5D5F8880063
:100CA000E16B20F040500843C5F88800E06BB0F1DC
:100CB000805F03D1E86840F48030E8603046BDE8EA
:100CC000F883000000100240007000402DE9F0475A
:100CD0000E4605004FF0000725D0DFF8AC81D8F8AC
:100CE000000000F00F00B0420CD2D8F8001021F044
:100CF0000F013143C8F80010D8F8000000F00F00D1
:100D0000B04210D12968614CC80741F2883A5AD0E4
:100D10006868DFF87C91032808D0022820682DD06D
:100D2000400500282CDB0120BDE8F0872068800109
:100D3000F9D5E06800F00302E068C0F30310401C3E
:100D4000032A19D0534A00BFB2FBF0F0E268C2F3A5
:100D500006225043E268C2F34162521C5200B0FBCB
:100D6000F2F0484517D9A06810F0F00F0CD08807B2
:100D700011D5A86840B10EE0474AE5E78003D0E707
:100D800000F0B6F8484506D9A06820F0F00040F021
:100D90008000A0608027A068696820F003000843F5
:100DA000A060FFF751FD814606E000BFFFF74CFD54
:100DB000A0EB090151453AD8A068696800F00C0021
:100DC000B0EB810FF2D12868810714D5400703D515
:100DD000A06840F4E060A0602878000705D5A0680E
:100DE00020F4605040F4E060A060A068A96820F0A2
:100DF000F000084304E0802F03D1A06820F0F00049
:100E0000A060D8F80010404601F00F01B14216D999
:100E1000016821F00F0131430160FFF715FD07461E
:100E200007E000BFFFF710FDC11B514501D90320AA
:100E30007AE7D8F8000000F00F00B042F2D128782D
:100E4000400705D5A068E96820F4E0600843A06089
:100E50002878000706D5A068296920F4605040EA88
:100E6000C100A06000F044F8A1680C4AC1F303116E
:100E7000515C01F01F01C840094908600948006839
:100E8000BDE8F047FFF7FEBC002002400010024022
:100E900000B4C4040024F40000127A0012250008F3
:100EA0007000002064000020054806490068896839
:100EB000054AC1F30221515C01F01F01C84070478F
:100EC0007000002000100240222500080548064955
:100ED00000688968054AC1F3C221515C01F01F0115
:100EE000C840704770000020001002402225000812
:100EF000184910B58868C0F381021748012A0BD041
:100F00008A684310C2F38102022A06D08A68C2F3BB
:100F10008102032A03D0002010BD184610BDCA6804
:100F200002F00304CA68C2F30312521C032C02D05D
:100F3000B0FBF2F001E0B3FBF2F0CA68C968C2F39B
:100F400006225043C1F34161491C4900B0FBF1F056
:100F500010BD0000001002400024F4002DE9F84309
:100F600004007AD02078F84DC00747D0A868E96817
:100F700000F00C0001F003010C2802D0082817D063
:100F800001E0032914D06068B0F5803F17D0B0F5B8
:100F9000A02F286817D020F480302860286820F41B
:100FA000802028606068E0B1FFF74EFC064614E040
:100FB0002868800322D560680028D2D01EE0286807
:100FC00040F48030EDE740F480202860F7E700BF70
:100FD000FFF73AFC801B642870D828688003F7D597
:100FE0000CE0FFF731FC064605E000BFFFF72CFCE4
:100FF000801B6428F0D828688003F7D42078800705
:101000004CD5A868E96800F00C0001F003010C2839
:1010100002D004280DD001E002290AD0E06800289F
:1010200028682BD040F480702860FFF70DFC06463E
:1010300019E02868400502D5E068002891D068686A
:10104000217C20F0FE4040EA01606860BF480068F3
:10105000FFF718FC002800D120E072E1FFF7F4FB55
:10106000801B0228B8D828684005F7D56868217C1D
:1010700020F0FE4040EA016068600FE020F48070DC
:101080002860FFF7E1FB064605E000BFFFF7DCFB49
:10109000801B0228A0D828684005F7D420780007D4
:1010A00029D560690028D5F8940013D040F00100DC
:1010B000C5F89400FFF7C8FB064606E090E000BFC5
:1010C000FFF7C2FB801B022886D8D5F89400800762
:1010D000F6D510E020F00100C5F89400FFF7B4FB4E
:1010E000064604E0FFF7B0FB801B022878D8D5F84D
:1010F00094008007F6D42078400761D5A86D0026BB
:10110000C00008D4A86D40F08050A865A86D0126E5
:1011100000F0805000908E480168C90511D4016824
:10112000804641F480710160FFF78EFB074604E0C2
:10113000FFF78AFBC01B022852D8D8F80000C00570
:10114000F6D5A068012815D00528D5F8900016D04E
:1011500020F00100C5F89000D5F8900020F00400C0
:10116000C5F89000A06841F28838B8B1FFF76CFB71
:1011700007460EE0D5F8900040F00100F0E740F09F
:101180000400C5F89000F5E7FFF75EFBC11B414581
:1011900026D8D5F890008007F6D50CE0FFF754FB71
:1011A000074604E0FFF750FBC11B414518D8D5F8AE
:1011B00090008007F6D41EB1A86D20F08050A8657D
:1011C0002078800629D5A0690028D5F8980013D08A
:1011D00040F00100C5F89800FFF736FB064606E030
:1011E00075E000BFFFF730FB801B02286FD8D5F8F1
:1011F00098008007F6D510E020F00100C5F89800AF
:10120000FFF722FB064604E0FFF71EFB801B0228C7
:101210005DD8D5F898008007F6D4E069F0B3A968E6
:10122000C1F3810103295DD00228286820F0807075
:10123000286003D0FFF708FB04464BE0FFF704FBF0
:10124000064604E0FFF700FB801B02283FD8286811
:101250008001F7D4F4E908016FF00F0202EB0111ED
:101260000843218A5204490802EB4151A26841EA2D
:1012700002210843217D4FF07E42490802EB416183
:101280000843217B40EAC160E968324A11400843C3
:10129000E860286840F08070286000E05EE0E86860
:1012A00040F08070E860FFF7CFFA044605E000BF29
:1012B000FFF7CAFA001B022809D828688001F7D571
:1012C0004CE000BFFFF7C0FA001B022802D9032040
:1012D000BDE8F88328688001F4D4E8681E49084016
:1012E000E8603BE00128F3D0E868226A00F00301DF
:1012F000914226D1616A00F0F00209011039914251
:101300001FD1A26A00F4FE41B1EB022F19D194F86B
:101310002C2000F07841B1EBC26F12D1218E00F485
:10132000C00249084905A1F50011914209D194F87C
:10133000341000F0C06049084906A1F100718142F3
:101340000CD00120C4E7000000100240640000201F
:10135000007000400C809F01FCFFEEFE0020B7E70C
:1013600010B5401EB0F1807F01D3012010BD4FF0B9
:10137000E02460610F21601700F0ADFE0020A06145
:1013800007202061002010BDF0B590F83C20012A14
:101390003AD0012580F83C50022280F83D200368B5
:1013A0005A689C68194E1A4FB34201D0BB4204D10F
:1013B00022F4700C4A6842EA0C02DFF858C002EAD4
:1013C0000C02D1F800C04CEA020CC3F804C0026859
:1013D000B2420DD0B2F1804F0AD00F4B9A4207D0E3
:1013E0000E4B9A4204D0BA4202D00D4B9A4204D11D
:1013F000896824F080031943916080F83D500021F2
:1014000080F83C100846F0BD0220F0BD002C0140E1
:10141000003401408FFFFFFD000400400008004041
:101420000040014010B5040003D094F83D0010B115
:1014300007E0012010BD002084F83C00204600F0A9
:1014400023F8022084F83D00211D206800F024FBD1
:10145000012084F8480084F83E0084F83F0084F8B6
:10146000400084F8410084F8420084F8430084F886
:10147000440084F8450084F8460084F8470084F866
:101480003D00002010BD000008B500680B498842EF
:1014900012D10B48816D41F010018165806D0022F1
:1014A00000F01000009011463620FFF733FABDE837
:1014B00008403620FFF720BA08BD000000100040A9
:1014C0000010024090F88410012918D0012180F802
:1014D00084102421C0F8881001680A680B6823F082
:1014E00001030B6022F0005100224266036819607C
:1014F0002021C0F8881080F8842010467047022010
:10150000704770B5044690F8840001281DD0012072
:1015100084F884002420C4F88800206805680268E4
:1015200022F0010202602068826822F060620A43B1
:101530008260204600F00EFB206805602020C4F881
:101540008800002084F8840070BD022070BD70B552
:10155000044690F8840001281DD0012084F88400FE
:101560002420C4F8880020680568026822F001027F
:1015700002602068826822F060420A43826020464E
:1015800000F0E8FA206805602020C4F888000020F8
:1015900084F8840070BD022070BD10B5040003D033
:1015A000D4F8880010B107E0012010BD002084F8B5
:1015B0008400204600F026F82420C4F88800206823
:1015C000016821F001010160A06A10B1204600F01D
:1015D000E3FA204600F0C4FB0128E6D02068416809
:1015E00021F4904141602068816821F02A018160E6
:1015F0002068016841F0010101602046BDE810400B
:1016000000F02EBB2DE9F04F97B00446142111A82D
:10161000FEF7C9FE44216846FEF7C5FE6C49206806
:101620006C4F022600254FF010084FF007094FF0CD
:10163000904B4FF0800A88426BD10120CDE9000524
:101640006846FFF7FFF908B1FEF771FF386E40F406
:1016500080403866386E00F480401690F86C40F098
:101660000400F864F86C00F004001690F86C40F088
:101670000100F864F86CCDE9126500F00100CDF8C6
:1016800044801495CDE915904F4611A95248FEF7B4
:10169000B1FF4FF48060CDE91265CDE91457119088
:1016A00011A95846FEF7A6FF4D4E4C4857463060EC
:1016B000C6E9035A7561B561F56119203562C6E95D
:1016C00001083046FEF736FF08B1FEF730FFE66747
:1016D000B462434E41486036143030601820C6E989
:1016E0000105C6E9035775614FF48050B561C6E93D
:1016F00007503046FEF71EFF08B1FEF718FFC4F88A
:101700008060002211462520B462FFF703F92520EE
:1017100058E03449884257D1684600960295FFF751
:1017200091F908B1FEF703FFB86D40F40030B865D9
:10173000B86D00F400301690F86C40F00100F864C9
:10174000F86CCDE9126500F0010016900C20CDE98F
:101750001459119011A95846FEF74CFF204E1F480E
:10176000C03628303060C6E9035A7561B561F5614D
:101770001B203562C6E9010857463046FEF7DAFEFF
:1017800008B1FEF7D4FEE667B4621448164E3C304A
:1017900030601A20C6E90105C6E9035720207561AB
:1017A000C6E9065030463562FEF7C4FE08B1FEF7C2
:1017B000BEFEC4F88060002211462620B462FFF706
:1017C000A9F82620FFF798F817B0BDE8F08F0000C1
:1017D00000380140001002400008004808000240A4
:1017E000E80300200044004008050020FEE7000058
:1017F000194808B5816C41F004018164816C01F0E5
:1018000004010091816C41F001018164806C00222F
:1018100000F00100009011460B20FFF77BF80B2031
:10182000FFF76AF8002211460C20FFF773F80C202E
:10183000FFF762F8002211460D20FFF76BF80D202C
:10184000FFF75AF8002211460E20FFF763F8BDE8B3
:1018500008400E20FFF750B8001002402DE9F0417B
:1018600086B014216846FEF79EFD1B48C16C41F00E
:101870000101C164C16C01F001010591C16C41F02D
:101880000401C164C06C154F00F0040005900022F3
:1018900040213846FEF7D2FF4FF480764FF0904853
:1018A000002231464046FEF7C9FF40200090012546
:1018B0000024CDE90154694638460394FEF79AFEA8
:1018C0000096CDE90154694640460394FEF792FE26
:1018D00006B0BDE8F081000000100240000800489A
:1018E0003EB500240F48009401940D490294016014
:1018F00044F62061C0E9011442F234118461C160F0
:10190000FFF790FD08B1FEF712FE00946946054806
:101910000294FFF739FD002801D0FEF708FE3EBD16
:101920000010004074020020184810B516490160EC
:101930004FF4E1314160002181600C22C160C0E9B7
:1019400004128161C161016241628162FFF725FE7B
:1019500008B1FEF7ECFD00210C48FFF7F8FD08B1D7
:10196000FEF7E5FD00210948FFF7CBFD08B1FEF7C2
:10197000DEFD0648FFF7A6FD002803D0BDE81040B5
:10198000FEF7D5BD10BD000000380140C0020020A8
:10199000184810B5164901604FF4E131416000214B
:1019A00081600C22C160C0E904128161C1610162E1
:1019B00041628162FFF7F1FD08B1FEF7B8FD002139
:1019C0000C48FFF7C4FD08B1FEF7B1FD002109483E
:1019D000FFF797FD08B1FEF7AAFD0648FFF772FD75
:1019E000002803D0BDE81040FEF7A1BD10BD0000E7
:1019F0000044004054030020FEE7FEE770477047B4
:101A0000FEF728BF00B593B038216846FEF7CBFC3F
:101A100014210EA8FEF7C7FC0020FEF7ADFF022040
:101A2000C1010391402104910421CDE908010090F6
:101A30005521CDE90A1007900C900D906846FFF7EC
:101A40008DFA08B172B6FEE70F200E9003200F90BA
:101A5000002010901190129004210EA8FFF736F983
:101A6000002801D072B6FEE713B000BD024801683D
:101A700041F470010160704788ED00E0044801699D
:101A800021F00101016103490888401C088070476A
:101A900000100040000000202DE9F0430268264BB2
:101AA000264D274E274C4FF08049984207D0484595
:101AB00005D0A84203D0B04201D0A04203D122F009
:101AC00070074A683A43204FDFF880C0DFF8808013
:101AD00098420DD048450BD0A84209D0B04207D05B
:101AE000A04205D0B84203D0604501D0404503D1A3
:101AF00022F44075CA682A434D6922F080022A43C5
:101B000002608A68C2620A688262984207D0A04274
:101B100005D0B84203D0604501D0404501D10969E4
:101B20000163012141610169C90703D0016921F005
:101B300001010161BDE8F083002C01400004004078
:101B400000080040003401400040014000440140D2
:101B50000048014030B5416EB9B1026891689268A1
:101B6000C1F342610B4B520F9C5CE50003F108048A
:101B7000A25CB5FBF2F2A0F86A205A5C615CD2006C
:101B8000B2FBF1F1A0F8681030BD0121A0F86A1095
:101B9000F8E700000225000890F82810090706D58C
:101BA00001684A68836B22F400421A434A6090F845
:101BB0002810C90706D001684A68C36A22F40032B7
:101BC0001A434A6090F82810890706D501684A68C8
:101BD000036B22F480321A434A6090F828104907B8
:101BE00006D501684A68436B22F480221A434A6092
:101BF00090F82810C90606D501688A68C36B22F4DC
:101C000080521A438A6090F82810890606D5016828
:101C10008A68036C22F400521A438A6090F82810F4
:101C2000490611D501684A68436C22F480121A43B0
:101C30004A60416CB1F5801F06D101684A68836C27
:101C400022F4C0021A434A6090F82810090606D50B
:101C500001684A68C06C22F4002202434A6070475F
:101C60002DE9F84300260446C0F89060FEF7ECFD2D
:101C70008046206800684FF0200500076FF07E471F
:101C800013D54346002229042046009700F0A2F90C
:101C900058B1216851E8000F20F0800041E80002AF
:101CA000002AF6D1C4F8885021E020680068400777
:101CB00022D5434600224FF480012046009700F0D1
:101CC00089F9C8B1216851E8000F20F4907041E80B
:101CD0000002002AF6D12068083050E8001F21F0E9
:101CE000010140E80012002AF5D1C4F88C5084F8B4
:101CF00084600320BDE8F883C4F88850C4F88C5091
:101D000044F86C6F666026760020F3E710B5026831
:101D100052E8001F21F4907142E80013002BF6D125
:101D20000E4B0268083252E8001F194042E80014C6
:101D3000002CF6D1C16E012908D1016851E8002FAD
:101D400022F0100241E80023002BF6D12021C0F838
:101D50008C100021C166416710BD0000FEFFFFEF3F
:101D60002DE9F0410446016880682269E369104367
:101D7000626900251A431043DFF82CC20A688B4BB6
:101D80001A4002430A6020684168E26821F4405129
:101D9000114341602168A069614501D0226A104366
:101DA0008A68834B1A4002438A602068C16A626A6B
:101DB00021F00F011143C1627E4923687E488B42A6
:101DC0000DD1D0F8880010F0030006D0012855D0BE
:101DD000022842D003283FD152E001203DE077495C
:101DE0008B420BD1D0F8880010F00C0035D00428BD
:101DF00033D0082840D00C282ED141E070498B42C6
:101E00000BD1D0F8880010F0300026D0102835D043
:101E1000202831D030281FD132E06A498B420BD1C3
:101E2000D0F8880010F0C00017D0402826D08028B5
:101E300022D0C02810D123E063450DD1D0F888000E
:101E400010F4406009D0B0F5806F17D0B0F5006F86
:101E500012D0B0F5406F13D010205B495B4F0026C5
:101E60004FF4004263453BD160B1022813D00428EF
:101E70000BD0082872D10DE00220EEE70420ECE739
:101E80000820EAE7FFF710F801E0FFF731F801005A
:101E900001D17CE01146606A37F810206768B1FB19
:101EA000F2F007EB4703834270D8B0EB073F6DD8E1
:101EB000002308461946FEF7FFF9090241EA1061BE
:101EC00002027808101871413A460023FEF7F4F92F
:101ED0003F4AA0F54071914258D82168C86056E049
:101EE000E3694FF6EF7893422CD109284ED2DFE810
:101EF00000F00508114D0D4D4D4D1000FEF7D4FFBB
:101F000001E0FEF7E3FF010004D140E0FEF7F0FF3F
:101F1000F9E71146606A37F81000B1FBF0F04100B4
:101F2000606801EB5001B1FBF0F0A0F110014145F8
:101F30002CD84FF6F0710140C0F3420001432068F5
:101F4000C16024E0092821D2DFE800F00509122051
:101F50000E2020201100FEF7A7FF02E016E0FEF79A
:101F6000B5FF010004D112E0FEF7C2FFF9E7114608
:101F7000606A37F81000B1FBF0F1606801EB5001C6
:101F8000B1FBF0F0A0F1100141450AD90125012073
:101F9000A4F86A0024F8680F2846E6602661BDE8C8
:101FA000F08180B299E7000000800040F369FFCF24
:101FB000FFF4FF11003801400010024000440040CF
:101FC00000480040004C00400024F400EA240008CF
:101FD000FFFC0F002DE9F047994617460D460446D1
:101FE0004FF00008089E33E0701C31D0FEF72CFC47
:101FF000A0EB0900B04218D8BEB1206801684907BB
:1020000026D5802D24D0402D22D0C169C94309078F
:102010000DD4082505622046FFF778FEC4F89050DD
:1020200084F884800120BDE8F0870320FBE7C069C5
:10203000C04300050CD421684FF4006008622046BC
:10204000FFF764FE2020C4F8900084F88480ECE759
:102050002068C06935EA000004D00020B842C3D02F
:102060000020E0E70120F9E770B5164E306806F170
:102070000404C00619D510202060134DE86920F033
:102080000100E8611148017801290AD1407803284C
:1020900002D0062805D102E000F072F801E000F05D
:1020A000FBF8E86940F00100E8613068400608D5B7
:1020B000206840F0400020600548016821F04001A0
:1020C000016070BD1C380140000002407401002016
:1020D00014080048FEE70907090E002804DB00F198
:1020E000E02080F80014704700F00F0000F1E020BD
:1020F00080F8141D7047000070B5094DFF231A4683
:1021000005F5807606E000BF10F8014B54402A5DCB
:102110005A40335D491E89B2F6D242EA032070BDAF
:10212000EA220008FEF79EFBFFF76CFCFFF796FB28
:10213000FFF75EFBFFF7F8FBFFF7D2FBFFF728FC8A
:102140000B48016821F0400101602021094800F09E
:1021500075F82021084800F051F80848016841F05E
:1021600001010160C16841F00101C160FEE70000AA
:102170001408004874000020740100200010004082
:10218000F0B511490124114E488842BA888843BAF3
:10219000A1F5807004704978417059008170032165
:1021A000002409E036F81250521C2F0A4754491CEB
:1021B00092B24554491C641C9C42F3DB044800F075
:1021C00009F80120F0BD000074010020000000208B
:1021D0007400002030B50C46054689B2FFF78CFF2D
:1021E00028552919000A4870A41CE1B2284600F0BD
:1021F00025F8BDE8304000F03BB800000D4A10B5AE
:10220000136843F0400313600B4AD36943F00203A1
:10221000D361084B083B1C6844F010041C60116239
:1022200004491C3151629062D06940F00100D061D4
:1022300010BD000008380140000002400A4A13683F
:1022400043F080031360084A083A136843F04003E0
:102250001360064A936843F002039360D160024919
:102260002031116150617047083801400000024080
:102270000748816821F00101816006490A6842F03F
:1022800040020A60816841F00101816070470000EE
:1022900000000240140800480CB50F480F4B41885D
:1022A000828849BA52BA23F8112001788DF80010BB
:1022B00041788DF8011081788DF80210C1788DF881
:1022C000031001798DF8041040798DF8050006217E
:1022D0006846FFF77FFF0CBD74010020000000205E
:1022E0004FF04070E1EE100A704700C1814001C01C
:1022F000804101C0804100C1814001C0804100C1D6
:10230000814000C1814001C0804101C0804100C1C5
:10231000814000C1814001C0804100C1814001C0B5
:10232000804101C0804100C1814001C0804100C1A5
:10233000814000C1814001C0804100C1814001C095
:10234000804101C0804100C1814000C1814001C085
:10235000804101C0804100C1814001C0804100C175
:10236000814000C1814001C0804101C0804100C165
:10237000814000C1814001C0804100C1814001C055
:10238000804101C0804100C1814000C1814001C045
:10239000804101C0804100C1814001C0804100C135
:1023A000814000C1814001C0804100C1814001C025
:1023B000804101C0804100C1814001C0804100C115
:1023C000814000C1814001C0804101C0804100C105
:1023D000814000C1814001C0804100C1814001C0F5
:1023E000804101C0804100C1814000C0C101C303E0
:1023F00002C2C60607C705C5C404CC0C0DCD0FCF5D
:10240000CE0E0ACACB0BC90908C8D81819D91BDBCC
:10241000DA1A1EDEDF1FDD1D1CDC14D4D515D7171C
:1024200016D6D21213D311D1D010F03031F133F3CC
:10243000F23236F6F737F53534F43CFCFD3DFF3F1C
:102440003EFEFA3A3BFB39F9F83828E8E929EB2B4C
:102450002AEAEE2E2FEF2DEDEC2CE42425E527E7DC
:10246000E62622E2E323E12120E0A06061A163A34C
:10247000A26266A6A767A56564A46CACAD6DAF6FDC
:102480006EAEAA6A6BAB69A9A86878B8B979BB7B4C
:102490007ABABE7E7FBF7DBDBC7CB47475B577B79C
:1024A000B67672B2B373B17170B0509091519353CC
:1024B000529296565797559594549C5C5D9D5F9F9C
:1024C0009E5E5A9A9B5B99595898884849894B8BCC
:1024D0008A4A4E8E8F4F8D4D4C8C4484854587475C
:1024E000468682424383418180400100020004000D
:1024F000060008000A000C001000200040008000C8
:1025000000010101010307010000080402040801A1
:1025100001010000000000000000010203040607A2
:102520000809000000000102030400004C25000817
:10253000000000207400000014020008C0250008FC
:1025400074000020540B000030020008D30457042C
:10255000AE08050D5C11B3150A1A611EB8220F27CB
:102560003930483CAF3CFA27A44D0B353528734D24
:102570009034E73861534957F75F4E64A568686047
:10258000AA4FC8723969066C0D7AE07A07875E8BAC
:10259000B58F0294E4788E881B8CFC8C6EB2C5B625
:1025A00012BB13A174A52FAA949EB2C17DBE45A0F3
:1025B0001000000001000000000000000024F400F2
:04000005080001D915
:00000001FF
