:020000040800F2
:10000000700A002079020008F11C0008251A000877
:10001000CD1B00086F04000819260008000000002E
:10002000000000000000000000000000411F000868
:10003000E105000800000000211D0008431F000822
:10004000930200089302000893020008930200083C
:10005000930200089302000893020008930200082C
:100060009302000893020008930200085D0500084F
:10007000930200089302000893020008930200080C
:100080009302000800000000930200089302000899
:1000900093020008930200089302000893020008EC
:1000A00093020008930200089302000893020008DC
:1000B00093020008930200089302000893020008CC
:1000C00093020008930200089302000893020008BC
:1000D00093020008A5250008930200089302000877
:1000E000930200089302000893020008930200089C
:1000F0009302000893020008930200080000000029
:1001000000000000930200080000000093020008B5
:100110009302000800000000C11F000893020008BD
:10012000930200089302000893020008930200085B
:100130009302000800000000000000009302000885
:100140009302000893020008000000000000000075
:10015000000000000000000000000000000000009F
:1001600000000000000000000000000093020008F2
:1001700093020008000000000000000000000000E2
:1001800000000000930200080000000000000000D2
:10019000000000000000000000000000000000005F
:1001A0000000000000000000930200089302000815
:1001B0009302000893020008930200080000000068
:1001C0000000000093020008000000000000000092
:1001D000930200089302000800F002F800F03CF8D7
:1001E0000AA090E8000C82448344AAF10107DA4592
:1001F00001D100F031F8AFF2090EBAE80F0013F0A8
:10020000010F18BFFB1A43F00103184780280000B4
:10021000A0280000103A24BF78C878C1FAD8520745
:1002200024BF30C830C144BF04680C607047000070
:100230000023002400250026103A28BF78C1FBD8EF
:10024000520728BF30C148BF0B6070471FB502F08E
:10025000F5FB1FBD10B510BD00F0CFF81146FFF73C
:10026000F5FF02F08BFB00F0EDF803B4FFF7F2FFAF
:1002700003BC00F0F5F80000094880470948004732
:10028000FEE7FEE7FEE7FEE7FEE7FEE7FEE7FEE746
:10029000FEE7FEE704480549054A064B70470000A3
:1002A000B11F0008D901000870040020700A002066
:1002B000700600207006002053EA020C00F06980EE
:1002C0002DE9F04B4FF00006002B1FBFB3FA83F56A
:1002D00003FA05F424FA05F65E4012BF1643B2FA9B
:1002E00082F502FA05F4C5F120051EBF22FA05FCCD
:1002F00044EA0C04203556EA044C4FEA144418BF73
:10030000641C4FF000084FF00009904271EB030CA1
:1003100039D3002919BFB1FA81F701FA07F6B0FA0B
:1003200080F700FA07F6C7F120071EBF20FA07FC86
:1003300046EA0C062037B6FBF4FCA7EB0507103F96
:1003400007F01F0BCBF120060CFA0BFB2CFA06F67C
:1003500044BFB3460026202FA4BF5E464FF0000BDB
:100360005BEA060C08BF4FF0010B19EB0B09ABFB66
:10037000027C48EB0608C01B06FB02CC0BFB03CC3F
:1003800071EB0C01C1E70B46024641464846BDE809
:10039000F08B13B54FF000004FF00001AFF3008079
:1003A000BDE81C4070474FF0000200B5134694466C
:1003B0009646203922BFA0E80C50A0E80C50B1F1BD
:1003C0002001BFF4F7AF090728BFA0E80C5048BFD1
:1003D0000CC05DF804EB890028BF40F8042B08BF6F
:1003E000704748BF20F8022B11F0804F18BF00F86B
:1003F000012B7047704770477047754600F02CF826
:10040000AE4605006946534620F00700854618B001
:1004100020B5FFF73FFFBDE820404FF000064FF04A
:1004200000074FF000084FF0000B21F00701AC4629
:10043000ACE8C009ACE8C009ACE8C009ACE8C00948
:100440008D46704710B50446AFF300802046BDE8E6
:100450001040FFF70ABF000000487047100400205A
:1004600001491820ABBEFEE7260002007047FEE7F8
:100470002DE9F047364E0546364AF37806F11C0062
:1004800006F10C0A002102EB850400EB8507ABB3F3
:10049000314AB078884606F114091154401EB070F4
:1004A00009EB850101222C4802F0D8F8B7EE000ACA
:1004B0000020B178F2EE040A04E000BF20EE200A2A
:1004C000401CC0B28842F9D359F8250000EE900ACA
:1004D0001F48B8EE601A243000EB8500C1EE000A18
:1004E000C0ED000A09B986F803805AF8250000EE2D
:1004F000100AB8EE400A30EE200A1CE005E000BF0A
:10050000B1EE400A87ED000A1AE0707800281DD08D
:10051000114AD0460A3A1154401E70700E480AEB38
:10052000850100220A3802F099F858F8250000EEFB
:10053000100AB8EE400A87ED000A30790028DFD1B2
:10054000A11C201DBDE8F04702F02EB9BDE8F087E0
:1005500000000020A00000200604002006480168DA
:10056000890707D5416841F002014160816821F0A7
:100570000101816070470000000002400D490268DF
:100580008A4201D20C4901E00B492031D2B2142336
:10059000083AB2FBF3F2436C02F01F0223F00303AC
:1005A0001944816404498031C1640121914001658D
:1005B0007047000008040240000802400179074A21
:1005C00002EB81024265054A4432491E826501F010
:1005D0001F0201219140C16570470000FC080240E4
:1005E0007047000010B51E4C04F11C00617919B170
:1005F00094ED020A80ED000A1A49194A1C32498911
:1006000092ED010A2A2912D02B2904D02D2907D0D6
:100610002F2917D110E0D0ED000A30EE800A03E058
:10062000D0ED000A30EEC00A84ED020A0AE0D0EDF7
:10063000000A20EE800AF7E7D0ED000A80EE801A6B
:1006400084ED021A074994ED020A0C31881C02F06D
:10065000ABF801206071BDE8104002F0F1B8000075
:1006600000000020A000002072B6FEE7437843F0AF
:100670008003437082700320087070472DE9FF4F9C
:100680008B46418884794EBA818806F007024DBABC
:1006900005F00701A02E7CD2002D7BD07719A02F6A
:1006A00078D8EF1DB4EBD70F75D1E71D5F457ED12C
:1006B0004FEAD6094FEAD50A00262DE0DFF8088177
:1006C00009EB06074FF0FF0C18F807500CFA02FC74
:1006D00025EA0C0500EB060E08F807509EF807C047
:1006E0000CFA02FC45EA0C0508F8075007EB080570
:1006F000C2F108086F784FF0FF0C2CFA08FC27EACB
:100700000C076F709EF807C02CFA08FC4CEA070C27
:10071000761C85F801C0F6B25645CFD391B3851942
:100720004FF0FF0AEF790AFA01FC4E4427EA0C0762
:10073000DFF89490EF71C1F1080819F806702AFAF1
:1007400008FC0CFA02FC27EA0C0709F8067095F879
:1007500007C011440CFA02FC47EA0C0709F80670BE
:1007600008290FD9C2F1080708EB07012AFA01FC92
:1007700006EB09014A7822EA0C024A70ED79FD4045
:1007800015434D70ABEB04010222C9B21A70491E29
:1007900008E016E00DE00AE0029C855CA5541A789A
:1007A000521C1A70D2B28A42F6DBBDE8FF8F0422D7
:1007B00000E00322029804B01946BDE8F04FFFF7AD
:1007C00055BF0222F6E7000018010020F0B40446ED
:1007D000408817460A4640BAA18800F0070CC008B6
:1007E0004DBA142821D212490126B5F57F4F06D003
:1007F00065B103223846F0BC1946FFF737BF0D5CE0
:1008000006FA0CF635430D54022008E00D5C06FA9A
:100810000CF6B543F7E7215C39541878401C187082
:10082000C0B29042F7D3F0BC70470222E2E700006A
:100830001801002070B504000CD02B4A2168142048
:10084000914209D2294A0A44B2FBF0F08000606468
:1008500027480AE0012070BD234A52420A44B2FBF5
:10086000F0F080006064204808382064022084F89A
:1008700025000A6847F6F0708243D4E90203184362
:10088000D4E904352B431843A3691843E36918439B
:10089000236A1843104308602046FFF76FFEA068E4
:1008A0000025B0F5804F00D16560A16C207908600B
:1008B000D4E9130141606068401E032808D820462F
:1008C000FFF77CFE606D0560D4E91601416002E02F
:1008D0006565A565E565E563012084F8250084F874
:1008E0002450002070BD000008040240F8FFFDBF46
:1008F000000002402DE9F04FDFF82092002301268E
:100900000324A9F1040B85B00F2709F1040AABF108
:10091000040EFAE006FA03F52A407CD091F804C0F0
:100920000CF0030CBCF1010F02D0BCF1020F26D178
:10093000D0F808C0CDF800C04FEA430C04FA0CF818
:10094000CDF810C0DDF800C02CEA080CCDF800C0CE
:10095000D1F80C80DDF810C008FA0CF8DDF800C002
:1009600048EA0C08C0F80880D0F804C02CEA050C4E
:100970000D79C5F300159D4045EA0C0545600D79DC
:10098000ED43AD070ED0C5684FEA430804FA08FCF2
:1009900025EA0C05D1F808C00CFA08FC4CEA050C55
:1009A000C0F80CC00D7905F00305022D16D1DD0845
:1009B00000EB850CCDF808C0DCF820805D074FEA1D
:1009C000D56C07FA0CF528EA05080D6905FA0CF54F
:1009D000DDF808C045EA0805CCF8205005684FEA64
:1009E000430CCDF808C004FA0CFC25EA0C0591F87C
:1009F00004C00CF00308DDF808C008FA0CF848EA57
:100A00000508C0F800804D6815F4403F7CD0444D87
:100A1000D5F860C000E077E04CF0010CC5F860C08C
:100A20002D6E23F0030C05F0010500953D4D654446
:100A30000295AD684FEA837C4FEA1C7807FA08FC00
:100A400025EA0C05B0F1904F06D0DFF8DCC0604518
:100A500005D14FF0010C20E04FF0000C1DE0DFF855
:100A6000CCC0604502D14FF0020C16E0DFF8C0C0E8
:100A7000604502D14FF0030C0FE0DFF8B8C06045CD
:100A800002D14FF0040C08E0DFF8ACC0604502D1A1
:100A90004FF0050C01E04FF0060C0CFA08FC4CEA94
:100AA000050C029DC5F808C0D9F80050CC46D1F815
:100AB000048095435FEAC82800D51543CCF8005060
:100AC000DAF80050D446D1F8048095435FEA8828CC
:100AD00000D51543CCF80050DBF80050DC46D1F8C7
:100AE000048095435FEA883800D51543CCF8005060
:100AF000DEF80050F446D1F8048095435FEAC83828
:100B000000D51543CCF800505B1C0A6832FA03F597
:100B10007FF400AF05B0BDE8F08F0000080401408D
:100B20000010024000000140000400480008004896
:100B3000000C004800100048001400480AB1816110
:100B4000704781627047000001488068704700006C
:100B50002C0000200248816842681144816070477F
:100B60002C00002010B50024032000F073F80F20A3
:100B700000F008F808B1012401E000F025F8204653
:100B800010BD000070B50E4E05460024706898B187
:100B90004FF47A71B1FBF0F00A490968B1FBF0F04B
:100BA00000F05EFD40B9102D06D200222946501EED
:100BB00000F030F8356000E00124204670BD0000F0
:100BC0002C000020380000200A4882B0016E41F05D
:100BD00001010166016E01F001010091816D41F09A
:100BE00080518165806D00F08050009002B000F06F
:100BF000A1B8000000100240002809DB00F01F022D
:100C0000012191404009800000F1E020C0F800116E
:100C100070470000F0B40E4B1B680C46C3F3022370
:100C2000C3F10705042D00D90425191D072901D298
:100C3000002300E0DB1E012606FA05F1491E2140D3
:100C400099409E40761E16403143F0BC01F0E5BC51
:100C50000CED00E0064900F0070208684FF6FF03BC
:100C6000184040EA0220034A104308607047000021
:100C70000CED00E00000FA052B492C4B0A683221EC
:100C80004A432B4940B1B0F5007F086829D020F4D1
:100C9000C06040F480602CE00868C0F34120022866
:100CA00004D051F8800F20F4807022E0D1F8800049
:100CB00020F48070C1F88000086820F4C06040F41F
:100CC00000700860B2FBF3F0401C00E0401E4A696F
:100CD000520501D50028F9D1486940050AD50320FD
:100CE0007047C0F34120022806D051F8800F40F42D
:100CF0008070086000207047D1F8800040F4807058
:100D0000C1F88000086820F4C06040F400700860FA
:100D1000B2FBF3F0401C00E0401E4A695205DBD5EF
:100D20000028F9D1D8E700003800002040420F0029
:100D3000007000400248816841F480418160704742
:100D4000007000402DE9F8430446006800269D4DE0
:100D500000035ED5A86D0027C00008D4A86D40F040
:100D60008050A865A86D012700F080500090DFF842
:100D70005892D9F8001041F48071C9F80010FFF7BB
:100D8000E3FE804606E000BFFFF7DEFEA0EB0800B2
:100D900002282BD8D9F80000C005F5D5D5F8900069
:100DA00010F4407014D0216C814211D0D5F890001D
:100DB000D5F8901020F4407041F48031C5F89010BF
:100DC000D5F8901021F48031C5F89010C5F8900046
:100DD000C00711D0FFF7B8FE804641F2883907E01E
:100DE000FFF7B2FEA0EB0801494501D903260BE04D
:100DF000D5F890008007F3D5D5F89000216C20F449
:100E000040700843C5F890001FB1A86D20F08050D5
:100E1000A8652078C00707D0D5F88800616820F061
:100E200003000843C5F888002078800707D5D5F867
:100E30008800A16820F00C000843C5F888002078DD
:100E4000400707D5D5F88800E16820F03000084356
:100E5000C5F888002078000707D5D5F888002169F3
:100E600020F0C0000843C5F888002078800607D528
:100E7000D5F88800616920F440600843C5F888000F
:100E80002078400607D5D5F88800A16920F44050A5
:100E90000843C5F888002078000607D5D5F88800F3
:100EA000E16920F440400843C5F888002088C00567
:100EB00007D5D5F88800216A20F440300843C5F8EA
:100EC00088002088800507D5D5F88800616A20F45D
:100ED00040200843C5F88800208840050FD5D5F884
:100EE0008800A16A20F440100843C5F88800A06A71
:100EF000B0F5801F03D1E86840F48010E8602088D6
:100F000000050FD5D5F88800E16A20F440000843B9
:100F1000C5F88800E06AB0F5800F03D1E86840F4B6
:100F20008010E8602088C0040FD5D5F88800216BB8
:100F300020F040700843C5F88800206BB0F1807F36
:100F400003D1E86840F48010E86020884FF0006129
:100F500080040ED5D5F88800626B20F04060104305
:100F6000C5F88800606B884203D1E86840F48010BF
:100F7000E860208840040ED5D5F88800A26B20F0E8
:100F800040601043C5F88800A06B884203D1E86830
:100F900040F48010E860208800040FD5D5F8880060
:100FA000E16B20F040500843C5F88800E06BB0F1D9
:100FB000805F03D1E86840F48030E8603046BDE8E7
:100FC000F883000000100240007000402DE9F04757
:100FD0000E4605004FF0000725D0DFF8AC81D8F8A9
:100FE000000000F00F00B0420CD2D8F8001021F041
:100FF0000F013143C8F80010D8F8000000F00F00CE
:10100000B04210D12968614CC80741F2883A5AD0E1
:101010006868DFF87C91032808D0022820682DD06A
:10102000400500282CDB0120BDE8F0872068800106
:10103000F9D5E06800F00302E068C0F30310401C3B
:10104000032A19D0534A00BFB2FBF0F0E268C2F3A2
:1010500006225043E268C2F34162521C5200B0FBC8
:10106000F2F0484517D9A06810F0F00F0CD08807AF
:1010700011D5A86840B10EE0474AE5E78003D0E704
:1010800000F0B6F8484506D9A06820F0F00040F01E
:101090008000A0608027A068696820F003000843F2
:1010A000A060FFF751FD814606E000BFFFF74CFD51
:1010B000A0EB090151453AD8A068696800F00C001E
:1010C000B0EB810FF2D12868810714D5400703D512
:1010D000A06840F4E060A0602878000705D5A0680B
:1010E00020F4605040F4E060A060A068A96820F09F
:1010F000F000084304E0802F03D1A06820F0F00046
:10110000A060D8F80010404601F00F01B14216D996
:10111000016821F00F0131430160FFF715FD07461B
:1011200007E000BFFFF710FDC11B514501D90320A7
:101130007AE7D8F8000000F00F00B042F2D128782A
:10114000400705D5A068E96820F4E0600843A06086
:101150002878000706D5A068296920F4605040EA85
:10116000C100A06000F044F8A1680C4AC1F303116B
:10117000515C01F01F01C840094908600948006836
:10118000BDE8F047FFF7FEBC00200240001002401F
:1011900000B4C4040024F40000127A00722A00088B
:1011A000380000202C0000200548064900688968A6
:1011B000054AC1F30221515C01F01F01C84070478C
:1011C0003800002000100240822A00080548064925
:1011D00000688968054AC1F3C221515C01F01F0112
:1011E000C84070473800002000100240822A0008E2
:1011F000184910B58868C0F381021748012A0BD03E
:101200008A684310C2F38102022A06D08A68C2F3B8
:101210008102032A03D0002010BD184610BDCA6801
:1012200002F00304CA68C2F30312521C032C02D05A
:10123000B0FBF2F001E0B3FBF2F0CA68C968C2F398
:1012400006225043C1F34161491C4900B0FBF1F053
:1012500010BD0000001002400024F4002DE9F84306
:1012600004007AD02078F84DC00747D0A868E96814
:1012700000F00C0001F003010C2802D0082817D060
:1012800001E0032914D06068B0F5803F17D0B0F5B5
:10129000A02F286817D020F480302860286820F418
:1012A000802028606068E0B1FFF74EFC064614E03D
:1012B0002868800322D560680028D2D01EE0286804
:1012C00040F48030EDE740F480202860F7E700BF6D
:1012D000FFF73AFC801B642870D828688003F7D594
:1012E0000CE0FFF731FC064605E000BFFFF72CFCE1
:1012F000801B6428F0D828688003F7D42078800702
:101300004CD5A868E96800F00C0001F003010C2836
:1013100002D004280DD001E002290AD0E06800289C
:1013200028682BD040F480702860FFF70DFC06463B
:1013300019E02868400502D5E068002891D0686867
:10134000217C20F0FE4040EA01606860BF480068F0
:10135000FFF718FC002800D120E072E1FFF7F4FB52
:10136000801B0228B8D828684005F7D56868217C1A
:1013700020F0FE4040EA016068600FE020F48070D9
:101380002860FFF7E1FB064605E000BFFFF7DCFB46
:10139000801B0228A0D828684005F7D420780007D1
:1013A00029D560690028D5F8940013D040F00100D9
:1013B000C5F89400FFF7C8FB064606E090E000BFC2
:1013C000FFF7C2FB801B022886D8D5F8940080075F
:1013D000F6D510E020F00100C5F89400FFF7B4FB4B
:1013E000064604E0FFF7B0FB801B022878D8D5F84A
:1013F00094008007F6D42078400761D5A86D0026B8
:10140000C00008D4A86D40F08050A865A86D0126E2
:1014100000F0805000908E480168C90511D4016821
:10142000804641F480710160FFF78EFB074604E0BF
:10143000FFF78AFBC01B022852D8D8F80000C0056D
:10144000F6D5A068012815D00528D5F8900016D04B
:1014500020F00100C5F89000D5F8900020F00400BD
:10146000C5F89000A06841F28838B8B1FFF76CFB6E
:1014700007460EE0D5F8900040F00100F0E740F09C
:101480000400C5F89000F5E7FFF75EFBC11B41457E
:1014900026D8D5F890008007F6D50CE0FFF754FB6E
:1014A000074604E0FFF750FBC11B414518D8D5F8AB
:1014B00090008007F6D41EB1A86D20F08050A8657A
:1014C0002078800629D5A0690028D5F8980013D087
:1014D00040F00100C5F89800FFF736FB064606E02D
:1014E00075E000BFFFF730FB801B02286FD8D5F8EE
:1014F00098008007F6D510E020F00100C5F89800AC
:10150000FFF722FB064604E0FFF71EFB801B0228C4
:101510005DD8D5F898008007F6D4E069F0B3A968E3
:10152000C1F3810103295DD00228286820F0807072
:10153000286003D0FFF708FB04464BE0FFF704FBED
:10154000064604E0FFF700FB801B02283FD828680E
:101550008001F7D4F4E908016FF00F0202EB0111EA
:101560000843218A5204490802EB4151A26841EA2A
:1015700002210843217D4FF07E42490802EB416180
:101580000843217B40EAC160E968324A11400843C0
:10159000E860286840F08070286000E05EE0E8685D
:1015A00040F08070E860FFF7CFFA044605E000BF26
:1015B000FFF7CAFA001B022809D828688001F7D56E
:1015C0004CE000BFFFF7C0FA001B022802D903203D
:1015D000BDE8F88328688001F4D4E8681E49084013
:1015E000E8603BE00128F3D0E868226A00F00301DC
:1015F000914226D1616A00F0F0020901103991424E
:101600001FD1A26A00F4FE41B1EB022F19D194F868
:101610002C2000F07841B1EBC26F12D1218E00F482
:10162000C00249084905A1F50011914209D194F879
:10163000341000F0C06049084906A1F100718142F0
:101640000CD00120C4E70000001002402C00002054
:10165000007000400C809F01FCFFEEFE0020B7E709
:1016600010B5401EB0F1807F01D3012010BD4FF0B6
:10167000E02460610F21601700F0CFFF0020A0611F
:1016800007202061002010BDF0B590F83C20012A11
:101690003AD0012580F83C50022280F83D200368B2
:1016A0005A689C68194E1A4FB34201D0BB4204D10C
:1016B00022F4700C4A6842EA0C02DFF858C002EAD1
:1016C0000C02D1F800C04CEA020CC3F804C0026856
:1016D000B2420DD0B2F1804F0AD00F4B9A4207D0E0
:1016E0000E4B9A4204D0BA4202D00D4B9A4204D11A
:1016F000896824F080031943916080F83D500021EF
:1017000080F83C100846F0BD0220F0BD002C0140DE
:10171000003401408FFFFFFD00040040000800403E
:101720000040014010B5040003D094F83D0010B112
:1017300007E0012010BD002084F83C00204600F0A6
:1017400023F8022084F83D00211D206800F042FCAF
:10175000012084F8480084F83E0084F83F0084F8B3
:10176000400084F8410084F8420084F8430084F883
:10177000440084F8450084F8460084F8470084F863
:101780003D00002010BD000008B500680B498842EC
:1017900012D10B48816D41F010018165806D0022EE
:1017A00000F01000009011463620FFF733FABDE834
:1017B00008403620FFF720BA08BD000000100040A6
:1017C0000010024090F88410012918D0012180F8FF
:1017D00084102421C0F8881001680A680B6823F07F
:1017E00001030B6022F00051002242660368196079
:1017F0002021C0F8881080F884201046704702200D
:10180000704770B5044690F8840001281DD001206F
:1018100084F884002420C4F88800206805680268E1
:1018200022F0010202602068826822F060620A43AE
:101830008260204600F02CFC206805602020C4F85F
:101840008800002084F8840070BD022070BD70B54F
:10185000044690F8840001281DD0012084F88400FB
:101860002420C4F8880020680568026822F001027C
:1018700002602068826822F060420A43826020464B
:1018800000F006FC206805602020C4F888000020D5
:1018900084F8840070BD022070BD10B5040003D030
:1018A000D4F8880010B107E0012010BD002084F8B2
:1018B0008400204600F026F82420C4F88800206820
:1018C000016821F001010160A06A10B1204600F01A
:1018D00001FC204600F0E2FC0128E6D020684168C7
:1018E00021F4904141602068816821F02A018160E3
:1018F0002068016841F0010101602046BDE8104008
:1019000000F04CBC2DE9F04198B00546142111A817
:10191000FEF749FD44216846FEF745FD3C4928682D
:10192000884271D101200024CDE900046846FFF708
:1019300009FA08B1FEF798FE3648016E41F480417D
:101940000166016E01F480411691C16C41F0040101
:10195000C164C16C01F004011691C16C41F0010138
:10196000C164C06C0226CDE912644FF0100800F08B
:101970000100CDF8448007271494CDE9157011A912
:101980002548FEF7B7FF7002CDE91264CDE9144790
:10199000119011A94FF09040FEF7ACFF204E1F4868
:1019A00080273060C6E903477461B461F46119208F
:1019B0003462C6E901083046FEF73CFF08B1FEF785
:1019C00053FEEE67B562164E144860361430306030
:1019D0001820C6E90104C6E9034774614FF480503A
:1019E000B461C6E907403046FEF724FF08B1FEF7B0
:1019F0003BFEC5F88060002201212520B562FFF77B
:101A000009F92520FFF7F8F818B0BDE8F0810000CB
:101A10000038014000100240000800480800024061
:101A20000C030020FEE70000F0B507464FF6FF70FC
:101A30000023094D0DE0FA5C5040002200F0010443
:101A4000460835F81400521C7040D2B2082AF5D36B
:101A50005B1C8B42EFD3F0BD462A00080D4808B549
:101A6000816C41F004018164816C01F004010091FA
:101A7000816C41F001018164806C002200F0010062
:101A8000009011460B20FFF7C5F8BDE808400B2079
:101A9000FFF7B2B8001002402DE9F04186B01421E2
:101AA0006846FEF780FC1B48C16C41F00401C1642C
:101AB000C16C01F004010591C16C41F00101C164E8
:101AC000C06C154F00F001000590002240213846FF
:101AD000FFF734F84FF480764FF0904800223146FB
:101AE0004046FFF72BF84020009001250024CDE967
:101AF0000154694638460394FEF7FCFE0096CDE992
:101B00000154694640460394FEF7F4FE06B0BDE872
:101B1000F081000000100240000800483EB500249B
:101B20000F48009401940D490294016041F28831FC
:101B3000C0E9011422218461C160FFF7F3FD08B1FF
:101B4000FEF792FD0094694605480294FFF79CFD5C
:101B5000002801D0FEF788FD3EBD000000100040C7
:101B60002C020020184810B5164901604FF4E131ED
:101B70004160002181600C22C160C0E904128161D2
:101B8000C161016241628162FFF787FE08B1FEF721
:101B90006BFD00210C48FFF75AFE08B1FEF764FD0B
:101BA00000210948FFF72DFE08B1FEF75DFD06484C
:101BB000FFF708FE002803D0BDE81040FEF754BD33
:101BC00010BD00000038014078020020FEE7000050
:101BD0002DE9FE43044600208DF808002078984641
:101BE0001546012801D0002847D1491EC8B2215C02
:101BF000401EC7B22046E65D46EA01263946FFF799
:101C000013FF864239D101202870607868706178AE
:101C100005294FD00BDC4FF0140001292FD00229E9
:101C20002FD03220032937D0042906D137E00629E6
:101C300047D00F294CD0102951D0012202A92846A3
:101C4000FEF714FD2078002817D09DF808102846CC
:101C5000FFF7EAFE9DF8081068549DF80810000A86
:101C6000491CC9B28DF8081068549DF80800414617
:101C7000401CC0B28DF808008847BDE8FE831B49B0
:101C800001E01A491439CDE9001002AB2A46394661
:101C9000204600F0B9F8D5E71449783901E0134936
:101CA000DC39CDE9001002AB2A463946204600F067
:101CB00000F9C7E702AB2A4639462046FEF786FD03
:101CC000C0E702AB2A463946204600F06DF8B9E776
:101CD00002AB2A4639462046FEF7D0FCB2E702ABFB
:101CE0002A463946204600F01DF8ABE718010020CF
:101CF000FEE7000010B5094C607918B100F012FD44
:101D000000206071E0780028207803D0BDE8104002
:101D100000F0ACBDBDE8104000F0FCBD00000020AC
:101D200070470000F0B516460A46014640888C7997
:101D300045BA8888322D40BA32D250B32F18322F8C
:101D400027D8B4EB400F22D1E01D90421FD10020D4
:101D5000144F0BE001EB000C05EB500EBCF807C074
:101D6000801C9CFA9CFC27F81EC0C0B2A042F1D394
:101D7000101B0222C0B21A70401E04E08C5CB454E6
:101D80001A78521C1A70D2B28242F7DBF0BD0422DC
:101D900000E003223046BDE8F0401946FEF766BC7D
:101DA0000222F7E7A000002030B41446428819460A
:101DB00053BA8288322B52BA0FD20A4D25F813201B
:101DC00002220A70D2B2835CA3540A78521CD2B2A7
:101DD0000A70062AF6D330BC7047204630BC022277
:101DE000FEF744BCA00000200549C8600548026811
:101DF00042F040020260886840F00100886070474D
:101E00000000024014080048F0B519460346154684
:101E10004088DDE905279B8840BA5CBA00F00706D8
:101E200004F00703B0EBC70F41D2BCB300EB040CC6
:101E3000BCEBC70F35D8E71D4FF07B0CBCEBD70FC1
:101E40002DD3C708E008A870002410E007EB040CAD
:101E500012F80CE094449CF801C04EEA0C2C2CFAC9
:101E600006FC05EB040E641C8EF803C0E4B2844249
:101E7000ECD383B1A878401CA8703819175C1044C3
:101E80004078FF2247EA0020F0409A4090432A1908
:101E9000641CD070E4B2E41C0C70F0BD01E00422BC
:101EA00000E003222846BDE8F040FEF7DFBB022237
:101EB000F8E7F0B419461746DDE904234488808822
:101EC00066BA44BA9E4228D214B3301998421FD839
:101ED0007B20B0EB440F19D36000B87000250DE0F3
:101EE000701932F810304FEA132C07EB450383F8D2
:101EF00003C032F810006D1C1871EDB2A542EFD38B
:101F0000032000EB44000870F0BC7047042200E09E
:101F100003223846F0BCFEF7A9BB0222F9E7000015
:101F200010B5064C607918B100F0FCFB0020607120
:101F30002078BDE8104000F0DDBB0000000000206C
:101F40007047FEF707BE00B593B038216846FEF72C
:101F50002AFA14210EA8FEF726FA0020FEF78CFEBE
:101F60000220C1010391402104910421CDE908011F
:101F700000905521CDE90A1007900C900D9068460D
:101F8000FFF76CF908B172B6FEE70F200E90032040
:101F90000F90002010901190129004210EA8FFF7CE
:101FA00015F8002801D072B6FEE713B000BD00009E
:101FB0000248016841F470010160704788ED00E05B
:101FC0000348016921F00101016100F05FBB0000DD
:101FD000001000402DE9F0430268264B264D274EA5
:101FE000274C4FF08049984207D0484505D0A84279
:101FF00003D0B04201D0A04203D122F070074A685A
:102000003A43204FDFF880C0DFF8808098420DD03F
:1020100048450BD0A84209D0B04207D0A04205D015
:10202000B84203D0604501D0404503D122F4407549
:10203000CA682A434D6922F080022A4302608A68F6
:10204000C2620A688262984207D0A04205D0B842B4
:1020500003D0604501D0404501D1096901630121E8
:1020600041610169C90703D0016921F001010161E2
:10207000BDE8F083002C014000040040000800404F
:10208000003401400040014000440140004801404C
:1020900030B5416EB9B1026891689268C1F342618E
:1020A0000B4B520F9C5CE50003F10804A25CB5FBEE
:1020B000F2F2A0F86A205A5C615CD200B2FBF1F146
:1020C000A0F8681030BD0121A0F86A10F8E7000000
:1020D000622A000890F82810090706D501684A68A6
:1020E000836B22F400421A434A6090F82810C90713
:1020F00006D001684A68C36A22F400321A434A6073
:1021000090F82810890706D501684A68036B22F405
:1021100080321A434A6090F82810490706D50168B2
:102120004A68436B22F480221A434A6090F82810D0
:10213000C90606D501688A68C36B22F480521A4327
:102140008A6090F82810890606D501688A68036CB1
:1021500022F400521A438A6090F82810490611D5DB
:1021600001684A68436C22F480121A434A60416C49
:10217000B1F5801F06D101684A68836C22F4C00261
:102180001A434A6090F82810090606D501684A6883
:10219000C06C22F4002202434A6070472DE9F843E4
:1021A00000260446C0F89060FEF7CEFC804620680A
:1021B00000684FF0200500076FF07E4713D54346B7
:1021C000002229042046009700F0A2F958B12168A6
:1021D00051E8000F20F0800041E80002002AF6D10B
:1021E000C4F8885021E020680068400722D54346A3
:1021F00000224FF480012046009700F089F9C8B111
:10220000216851E8000F20F4907041E80002002A94
:10221000F6D12068083050E8001F21F0010140E8A5
:102220000012002AF5D1C4F88C5084F88460032091
:10223000BDE8F883C4F88850C4F88C5044F86C6F3B
:10224000666026760020F3E710B5026852E8001FAA
:1022500021F4907142E80013002BF6D10E4B026876
:10226000083252E8001F194042E80014002CF6D151
:10227000C16E012908D1016851E8002F22F0100237
:1022800041E80023002BF6D12021C0F88C1000215A
:10229000C166416710BD0000FEFFFFEF2DE9F04170
:1022A0000446016880682269E36910436269002579
:1022B0001A431043DFF82CC20A688B4B1A400243C2
:1022C0000A6020684168E26821F44051114341608E
:1022D0002168A069614501D0226A10438A68834B56
:1022E0001A4002438A602068C16A626A21F00F01C5
:1022F0001143C1627E4923687E488B420DD1D0F8DC
:10230000880010F0030006D0012855D0022842D0E2
:1023100003283FD152E001203DE077498B420BD1A9
:10232000D0F8880010F00C0035D0042833D00828ED
:1023300040D00C282ED141E070498B420BD1D0F80F
:10234000880010F0300026D0102835D0202831D059
:1023500030281FD132E06A498B420BD1D0F8880077
:1023600010F0C00017D0402826D0802822D0C028E6
:1023700010D123E063450DD1D0F8880010F44060FF
:1023800009D0B0F5806F17D0B0F5006F12D0B0F55E
:10239000406F13D010205B495B4F00264FF4004282
:1023A00063453BD160B1022813D004280BD0082824
:1023B00072D10DE00220EEE70420ECE70820EAE706
:1023C000FEF7F2FE01E0FEF713FF010001D17CE011
:1023D0001146606A37F810206768B1FBF2F007EB2E
:1023E0004703834270D8B0EB073F6DD800230846FF
:1023F0001946FDF761FF090241EA106102027808FF
:10240000101871413A460023FDF756FF3F4AA0F5E8
:102410004071914258D82168C86056E0E3694FF690
:10242000EF7893422CD109284ED2DFE800F005085E
:10243000114D0D4D4D4D1000FEF7B6FE01E0FEF7BB
:10244000C5FE010004D140E0FEF7D2FEF9E71146D7
:10245000606A37F81000B1FBF0F04100606801EBF2
:102460005001B1FBF0F0A0F1100141452CD84FF61E
:10247000F0710140C0F3420001432068C16024E0D4
:10248000092821D2DFE800F0050912200E202020C3
:102490001100FEF789FE02E016E0FEF797FE01004C
:1024A00004D112E0FEF7A4FEF9E71146606A37F89E
:1024B0001000B1FBF0F1606801EB5001B1FBF0F0EE
:1024C000A0F1100141450AD901250120A4F86A00B4
:1024D00024F8680F2846E6602661BDE8F08180B2E6
:1024E00099E7000000800040F369FFCFFFF4FF117F
:1024F0000038014000100240004400400048004005
:10250000004C00400024F4004A2A0008FFFC0F00A1
:102510002DE9F047994617460D4604464FF000084E
:10252000089E33E0701C31D0FEF70EFBA0EB0900D3
:10253000B04218D8BEB120680168490726D5802D61
:1025400024D0402D22D0C169C94309070DD40825E4
:1025500005622046FFF778FEC4F8905084F8848026
:102560000120BDE8F0870320FBE7C069C0430005F8
:102570000CD421684FF4006008622046FFF764FE27
:102580002020C4F8900084F88480ECE72068C069BB
:1025900035EA000004D00020B842C3D00020E0E7B4
:1025A0000120F9E770B5174E306806F10405C00642
:1025B0001BD5286840F010002860134CE06920F01B
:1025C0000100E061206A124AC0F18000C1B20F4BE5
:1025D00002F18000FFF7FCFA0D488030A0628020F5
:1025E0002062E06940F00100E0613068400608D5F3
:1025F000286840F0400028600648016821F040014A
:10260000016070BD1C38014000000240E91D000857
:102610002C01002014080048FEE70907090E0028D5
:1026200004DB00F1E02080F80014704700F00F0098
:1026300000F1E02080F8141D704700000648817901
:1026400011B90178491C0170002141708170C1707D
:1026500001710121817170470000002030B50A4BE3
:102660000AB19B7800E05B7800220A6008E0845C95
:102670000D68521C05EB850504EB4504D2B20C60D5
:102680009A42F4D330BD000000000020164810B577
:102690000178002917D0154C0021017020880928E5
:1026A00001D8FFF727FB2088114C0A3806280AD2E8
:1026B000DFE800F007030A0E1412BDE81040FFF730
:1026C0002FBC0120E07010BDBDE81040FFF7B6BF81
:1026D000BDE81040FDF786BF00F024F82078BDE883
:1026E0001040FDF7C5BE000018010020A00000202A
:1026F0000000002009490A79D2430A711C3101EB1C
:10270000800191ED000AB1EE400A81ED000A044912
:1027100001EB8000811C001D00F046B80000002085
:10272000A00000202DE9F0411B4D00242DED028B6F
:1027300005F11C076C70AC70EC702C71AC719FEDE6
:10274000178A2C7087ED008A87ED018A85ED028A51
:102750000A211348FDF727FE1148124E3038B11CEC
:1027600040F83A4FB0EE480A44600481301D00F052
:102770001BF8B11D97ED010A881C00F015F806F151
:102780000C01881C95ED020A00F00EF87481BDEC76
:10279000028BBDE8F0810000000000200000000076
:1027A000FC030020A000002010EE102A130C038070
:1027B0000A8070470A490B4A91ED000A02EB0010AB
:1027C00080ED000A91ED010A1C3980ED010A91EDBE
:1027D000020A054980ED020A897A017370470000F8
:1027E0001C000020CC030020A0000020124910B5DE
:1027F00001EB0011C0EBC003104891ED000A00EBA3
:10280000430491ED011A0A7BA283D1ED020A04F17F
:102810001001881CFFF7C8FF04F11401881CB0EEFA
:10282000410AFFF7C1FF04F11801BDE81040881C00
:10283000B0EE600AFFF7B8BFCC030020A000002074
:10284000F0B5094890E8FE10103080E8FE10002036
:10285000FFF7B0FF00242046FFF7C8FF641CE4B276
:10286000032CF8D3F0BD0000CC030020F0B5284DB8
:102870000446254E254AA878317805F114071154ED
:1028800000213180401CA87007EB840101221F4801
:10289000FFF7E4FEB7EE000A0020A978F2EE040A82
:1028A00004E000BF20EE200A401CC0B28842F9D3E9
:1028B00057F8240000EE900A1548B8EE601A24304C
:1028C00000EB8400C1EE000AC0ED000A10480C3095
:1028D00050F8240000EE100A0D48B8EE400A1C30F3
:1028E00000EB840230EE200A82ED000A287918B14C
:1028F000B1EE400A82ED000A06EB8400BDE8F0402C
:10290000811C001DFFF750BFA0000020060400201E
:1029100000000020F0B5184E0446154D154A707899
:10292000297806F10C07115400212980401C707091
:1029300007EB840100220F48FFF790FE57F82400B0
:1029400000EE100A06F11C0000EB8402B8EE400A0B
:1029500082ED000A307918B1B1EE400A82ED000A2A
:1029600005EB8400BDE8F040811C001DFFF71CBF93
:10297000A0000020FC03002000000020FEF7F2F879
:10298000FFF7E1FAFFF788F8FFF768F8FFF7EAF8D2
:10299000FFF7C4F80B48016821F040010160802175
:1029A000094800F031F88021084800F013F8084881
:1029B000016841F001010160C16841F00101C1609D
:1029C000FEE70000140800482C010020AC010020A4
:1029D000001000400A4A136843F040031360084A9D
:1029E000083A136843F010031360064A1162044961
:1029F0001C3151629062D06940F00100D061704793
:102A000008380140000002400A4A136843F080037E
:102A10001360084A083A136843F040031360064AFB
:102A2000936843F002039360D16002492031116141
:102A30005061704708380140000002404FF040707C
:102A4000E1EE100A7047000001A00100020004003E
:102A5000060008000A000C00100020004000800062
:102A6000000101010103070100000804020408013C
:102A7000010100000000000000000102030406073D
:102A8000080900000000010203040000AC2A00084D
:102A9000000000203C00000014020008E82A0008A2
:102AA0003C000020340A0000300200080000000052
:102AB0000000000000000000000000000000000016
:102AC0000000000000000000000000000000000006
:102AD00000000000000000001000000001000000E5
:082AE000000000000024F400D6
:04000005080001D915
:00000001FF
